:02000000872E49
:10000800FF00030E83018316DF000A08E0008A015F
:10001800831289010130D500FD308B0583166008F5
:0C0028008A005F0E8300FF0E7F0E0900AF
:0E003400213083120313FD00FD0B1E2808006F
:100042000F3083120313FC004730FD00FD0B2728FD
:0A005200FC0B272800000000080046
:06005C0000000000080096
:1000620083120317941B3828031388133A280313A7
:1000720088170317141B402803130813422803137D
:1000820008170317941A4828031388124A280313DF
:1000920088160317141A5028031308125228031340
:1000A2000816831651185828831208155A288312E5
:1000B200081188152E208811031794196328031339
:1000C2008813652803138817031714196B28031361
:1000D20008136D28031308170317941873280313C2
:1000E2008812752803138816031714187B28031324
:1000F20008127D28031308168316511883288312C9
:10010200081585288312081188152E208811831658
:0C011200511C8D2821208E281A20080086
:10011E0083120313F801F9011030FC00710DF80D74
:10012E00F90D7408F8027508031C750FF90203180F
:10013E00A7287408F80775080318750FF907031038
:0A014E00F00DF10DFC0B95280800E0
:1001580083160313511083120317130894003120D8
:060168008316511408008B
:10016E00C9288030831203179000DC28C03090001D
:10017E00DC2894309000DC28D4309000DC288030CD
:10018E009000DC28831203171008013A0319B828CF
:10019E001008023A0319BD281008033A0319C028A3
:1001AE001008043A0319C328C6281103F0001008DA
:1001BE00F0077008900070089400312083165110DB
:1001CE00EE016E088312031712078400000803194C
:1001DE00FC28831603136E0883120317120784007C
:1001EE0000089300AC20EE0AE8288316031351147E
:0201FE000800F7
:1002000083160313EE0105306E02031812296E08DF
:100210008312031712078400203080008316031313
:10022000EE0A03296E088312031712078400800167
:1002300083160313EE036E08831203171207831647
:100240000313EF000A30F400F501831203171008BE
:10025000F0001108F1008F207808F0007908F10013
:100260003030F00783166F088400700880000A3071
:10027000F400F501831203171008F0001108F100D3
:100280008F207008031790007108910000307106EC
:10029000031D4C2900307006031D4F295329831676
:0802A0000313EE031B29080003
:0E02A8008316031350088A004F0882000800D6
:1002B600831603136508831203179000013091001B
:0802C60044309200B72008004B
:1002CE00831603136508F000F00CF013F00CF01316
:1002DE00F00CF013F00CF0130030F1002D30F0079D
:1002EE0007300318013EF1077008CF007108D000E7
:1002FE0054218A110A12F0006608840070088000EA
:10030E00660AF2000F306505F0000030F1002D3066
:10031E00F00707300318013EF1077008CF0071088F
:10032E00D00054218A110A12F0007208840070085D
:0C033E0080000230660784008001080087
:10034A00831603136508F2007208F000F20A7008B7
:10035A00840000080319B229A92965087202F0006D
:0C036A000130F002F101031CF103080057
:10037600831603136508F2006608F3006508660233
:100386000318E32967087307F1007108720203185E
:10039600E3296708F3076708F207F203F303730814
:1003A60084000008F00072088400700880000130A4
:1003B600E702031CE80367086804031DD029F9292E
:1003C600670868040319F929730884000008F00017
:1003D6007208840070088000F20AF30A0130E7020E
:1003E600031CE80367086804031DE7296508F00095
:0203F6000800FD
:1003F80083160313EA01EB016508EC006608ED00BB
:1004080080306606F00080307002031D0D2A00302F
:10041800650203181B2A0130EA000030EB0065086A
:10042800003CEC006608031C013EED01ED026C087F
:10043800831203179000831603136D0883120317A2
:100448009100831603136708831203179200002193
:10045800063083160313E8000030E9006908003C01
:10046800031D382A6808003C0318532A68086707E0
:10047800F20001306802F0000030031C013E6902FE
:10048800F1007008670784000008F0007208840013
:10049800700880000130E802031CE903322A67086B
:1004A8008400203080006A086B040319712AE8016F
:1004B800E9016808670784000008203A031D682AD4
:1004C800E80A0319E90A5D2A0130E802031CE90376
:0C04D8006808670784002D3080000800D1
:1004E400831603135308F0005408F1005508F20072
:1004F400F3017008D6007008E500C930E6006721F2
:020504000800ED
:10050600831603136108DE006108013A031D952A6C
:1005160083121B08FA3A0319952A19309B07EE0A2B
:100526000319EF0A83165E08003A031DA52A8312F3
:100536001B08003A0319A52A19309B020130EE0266
:10054600031CEF0301308316E5000030E6005B2153
:1005560083126E088316E50083126F088316E60081
:10056600D730E700FC215708203A031DC72AD730A9
:10057600E500A5217008E7007108E800D730E5001E
:10058600D830E600BB21B62A01308312031790004B
:1005960001309100B1309200B72001308312031769
:0E05A60090000D309100D7309200B720080071
:1005B400831603136108840000080319EE2A6108F6
:1005C40084000008F1006208840071080006031D1D
:1005D400EE2AE10AE20ADA2A610884000008F0003F
:1005E400620884000008F002F101031CF103080012
:1005F40083160313E101E201E301E4018312861887
:10060400302B83166408003C031D122B6308003C46
:10061400031D122B6208003C031D122B6108B43C1D
:10062400031C302B6108F0006208F1006308F2003B
:100634006408F300F00A0319F10A0319F20A031912
:10064400F30A7008E1007108E2007208E30073081D
:10065400E4002130FD00FD0B2D2B002B83166408D4
:10066400003C031D3F2B6308003C031D3F2B620825
:10067400003C031D3F2B6108B33C031C522B00308C
:100684006402031D4F2B00306302031D4F2B003007
:100694006202031D4F2B78306102031C522B542B32
:1006A400F001B72CE101E201E301E4018312861CAD
:1006B400882B83166408003C031D6A2B6308003CE6
:1006C400031D6A2B6208003C031D6A2B61085A3C17
:1006D400031C882B6108F0006208F1006308F20033
:1006E4006408F300F00A0319F10A0319F20A031962
:1006F400F30A7008E1007108E2007208E30073086D
:10070400E4002130FD00FD0B852B582B8316640873
:10071400003C031D972B6308003C031D972B6208C4
:10072400003C031D972B6108593C031CAA2B003085
:100734006402031DA72B00306302031DA72B0030A6
:100744006202031DA72B28306102031CAA2BAC2BC9
:10075400F001B72CF501F601F701F8010030780239
:10076400031DBE2B00307702031DBE2B0030760222
:10077400031DBE2B203075020318B52CE101E201E4
:10078400E301E40183128618F42B83166408003C09
:10079400031DD62B6308003C031DD62B6208003CC6
:1007A400031DD62B6108173C031CF42B6108F000D1
:1007B4006208F1006308F2006408F300F00A031908
:1007C400F10A0319F20A0319F30A7008E100710827
:1007D400E2007208E3007308E4002130FD00FD0B21
:1007E400F12BC42B8316E101E201E301E40183123E
:1007F400861C292C83166408003C031D0B2C6308FB
:10080400003C031D0B2C6208003C031D0B2C6108EB
:100814002D3C031C292C6108F0006208F1006308D8
:10082400F2006408F300F00A0319F10A0319F20A4A
:100834000319F30A7008E1007108E2007208E3008A
:100844007308E4002130FD00FD0B262CF92B8316E0
:100854006408003C031D382C6308003C031D382C3D
:100864006208003C031D382C6108153C03186A2CEF
:100874001F30F000F101F201F3017508F00276086F
:10088400031C760FF1027708031C770FF202780835
:10089400031C780FF3027008F4000130F0000030FC
:1008A400F1000030F2000030F30074080319612CE9
:1008B400F00DF10DF20DF30D7010FF3E582C700881
:1008C400D2047108D3047208D4047308D5049D2C8F
:1008D4001F30F000F101F201F3017508F00276080F
:1008E400031C760FF1027708031C770FF2027808D5
:1008F400031C780FF3027008F4000130F00000309C
:10090400F1000030F2000030F30074080319912C58
:10091400F00DF10DF20DF30D7010FF3E882CF0096F
:10092400F109F209F3097008D2057108D3057208B8
:10093400D4057308D5057508F0007608F10077082A
:10094400F2007808F300F00A0319F10A0319F20A15
:100954000319F30A7008F5007108F6007208F7002D
:0C0964007308F800B02B0130F000080010
:1009700083160313881108110812881208138813AC
:100980008312881108118813081388120812212075
:10099000212021208816081688152E208811212054
:1009A00088152E208811212088152E2088112120BD
:1009B000081288152E208811212088152E208811D4
:1009C0008812881788152E20881121208813081670
:1009D00088152E208811081288152E2088112120B4
:1009E00088152E208811081688152E2088112120A0
:1009F000081288152E2088118817081788160816DF
:0E0A000088152E20881121208316511408001D
:100A0E00013083160313E5000030E6005B21013050
:100A1E008312031790000130910056309200B720D8
:060A2E008312D50108004F
:100A3400013083160313E5000030E6005B218312C6
:100A440020088316E500CC30E6006721C930E100B8
:100A5400CC30E200DA2200307106031D332D003061
:100A64007006031D402D01308312031790000130DE
:100A740091003A309200B720831289018312210831
:100A84008316E500CC30E6006721C930E100CC30A4
:100A9400E200DA2200307106031D522D0030700688
:100AA400031D662D0130831203179000013091005D
:100AB40032309200B72001308312031790000130C6
:100AC4009100CC309200B720831222088316E500EF
:100AD400CC30E6006721C930E100CC30E200DA22F4
:100AE40000307106031D782D00307006031D862D1D
:100AF400013083120317900001309100CC30920032
:100B0400B720E101E2018322831223088316E50062
:100B1400CC30E6006721C930E100CC30E200DA22B3
:100B240000307106031D982D00307006031DA82D9A
:100B3400013083120317900001309100CC309200F1
:100B4400B7200130E1000030E20083228312240840
:100B54008316E500CC30E6006721C930E100CC30D3
:100B6400E200DA2200307106031DBA2D003070064F
:100B7400031DD22D01308312031790000130910020
:100B840028309200B7208230FC00DD30FD00FD0BE0
:100B9400C92DFC0BC92D000000000130831289000F
:100BA400831225088316E500CC30E6006721C9309E
:100BB400E100CC30E200DA2200307106031DE42D9E
:100BC40000307006031DFC2D0130831203179000C2
:100BD40001309100BE309200B7208230FC00DD303D
:100BE400FD00FD0BF32DFC0BF32D00000000023083
:100BF40083128900831226088316E500CC30E600B0
:100C04006721C930E100CC30E200DA2200307106FD
:100C1400031D0E2E00307006031D192E01308312A1
:100C24000317900001309100CC309200B72083125A
:100C340027088316E500CC30E6006721C930E100BF
:100C4400CC30E200DA2200307106031D2B2E003076
:100C54007006031D362E01308312031790000130F5
:0A0C64009100CC309200B720080088
:100C6E00B824013083120317940031200C3003177F
:100C7E0094003120073092000C309D00FA3083161C
:100C8E0092004B3083129B0001300317900001300D
:100C9E009100A0309200B720831221088316E50040
:100CAE00CC30E6006721CC30E100C930E200DA2218
:100CBE0000307106031D652E0030700603196D2E6F
:100CCE00FA22700803196C2E72225A2E01308312EA
:100CDE00031794003120013003179000013091006A
:080CEE0060309200B7200800FD
:100CF60054218A110A128000840ACF0A0319D00AE5
:080D0600F003031D7B2E080021
:100D0E00402790308B040F30831603138600831216
:100D1E008601831687018901831289013726FA22FB
:100D2E0070080319AA2E72220230E5000030E60088
:100D3E005B21023083120317900001309100C930FD
:100D4E009200B7201A25831255080319AF2E0725D6
:040D5E00962EB02EEF
:100E8000203084004E3083120313F000B6308316F6
:100E9000CF000630D0007B26A0308400293083129A
:100EA0000313F00004308316CF000730D0007B26F8
:100EB0006E308400023083120313F0003D3083163D
:0A0EC000CF000730D0007B260800A9
:100D6C0021340134C134813461344134E134A1344F
:100D7C00473461347434653420344C34653466340F
:040D8C007434003487
:100D9000473461347434653420344F346E34003455
:100DA00047346134743465342034533474346F34CC
:040DB0007034003467
:100DB400203420342034203420342034203420348F
:100DC400203420342034203420342034203420347F
:020DD4000034E9
:020DD6000034E7
:100DD80047346134743465342034733474346F3474
:040DE800703400342F
:100DEC0053346D3461347234743420344734613488
:0C0DFC007434653420344F346E340034FD
:100E080053346D346134723474342034473461346B
:100E1800743465342034493464346C3465342E3485
:020E2800003494
:100E2A005334703465346534643420344C34653456
:0A0E3A00763465346C343A34003429
:100E4400473461347434653420345234693467343B
:060E540068347434003420
:100E5A00303431343234333434343534363437344C
:100E6A0038343934413442344334443445344634D2
:040E7A000334003409
:02400E004A2F37
:00000001FF
